{
  "contractName": "healthi",
  "abi": [
    {
      "inputs": [
        {
          "internalType": "uint256",
          "name": "",
          "type": "uint256"
        }
      ],
      "name": "idToAccess",
      "outputs": [
        {
          "internalType": "bool",
          "name": "",
          "type": "bool"
        }
      ],
      "stateMutability": "view",
      "type": "function",
      "constant": true
    },
    {
      "inputs": [
        {
          "internalType": "uint256",
          "name": "",
          "type": "uint256"
        }
      ],
      "name": "idToName",
      "outputs": [
        {
          "internalType": "string",
          "name": "",
          "type": "string"
        }
      ],
      "stateMutability": "view",
      "type": "function",
      "constant": true
    },
    {
      "inputs": [
        {
          "internalType": "uint256",
          "name": "",
          "type": "uint256"
        }
      ],
      "name": "permissionsDB",
      "outputs": [
        {
          "internalType": "string",
          "name": "Name",
          "type": "string"
        },
        {
          "internalType": "uint256",
          "name": "Id",
          "type": "uint256"
        },
        {
          "internalType": "bool",
          "name": "AccessState",
          "type": "bool"
        }
      ],
      "stateMutability": "view",
      "type": "function",
      "constant": true
    },
    {
      "inputs": [
        {
          "internalType": "uint256",
          "name": "_id",
          "type": "uint256"
        },
        {
          "internalType": "string",
          "name": "_name",
          "type": "string"
        }
      ],
      "name": "enterDetails",
      "outputs": [],
      "stateMutability": "nonpayable",
      "type": "function"
    },
    {
      "inputs": [
        {
          "internalType": "uint256",
          "name": "_id",
          "type": "uint256"
        },
        {
          "internalType": "bool",
          "name": "_accessValue",
          "type": "bool"
        }
      ],
      "name": "accessToggle",
      "outputs": [],
      "stateMutability": "nonpayable",
      "type": "function"
    }
  ],
  "bytecode": "0x608060405234801561001057600080fd5b506108b4806100206000396000f3fe608060405234801561001057600080fd5b50600436106100575760003560e01c80632c674d161461005c57806332d13d451461008e578063364410b3146100be578063d5d3926f146100ee578063e7fbc4d01461010a575b600080fd5b610076600480360381019061007191906104b5565b610126565b604051610085939291906105a5565b60405180910390f35b6100a860048036038101906100a391906104b5565b6101f5565b6040516100b591906105e3565b60405180910390f35b6100d860048036038101906100d391906104b5565b610215565b6040516100e591906105fe565b60405180910390f35b6101086004803603810190610103919061064c565b6102b5565b005b610124600480360381019061011f91906107c1565b6102e4565b005b6001818154811061013657600080fd5b90600052602060002090600302016000915090508060000180546101599061084c565b80601f01602080910402602001604051908101604052809291908181526020018280546101859061084c565b80156101d25780601f106101a7576101008083540402835291602001916101d2565b820191906000526020600020905b8154815290600101906020018083116101b557829003601f168201915b5050505050908060010154908060020160009054906101000a900460ff16905083565b60036020528060005260406000206000915054906101000a900460ff1681565b600260205280600052604060002060009150905080546102349061084c565b80601f01602080910402602001604051908101604052809291908181526020018280546102609061084c565b80156102ad5780601f10610282576101008083540402835291602001916102ad565b820191906000526020600020905b81548152906001019060200180831161029057829003601f168201915b505050505081565b806003600084815260200190815260200160002060006101000a81548160ff0219169083151502179055505050565b60008060006101000a81548160ff0219169083151502179055506001604051806060016040528083815260200184815260200160008054906101000a900460ff1615158152509080600181540180825580915050600190039060005260206000209060030201600090919091909150600082015181600001908051906020019061036f9291906103c8565b506020820151816001015560408201518160020160006101000a81548160ff0219169083151502179055505050806002600084815260200190815260200160002090805190602001906103c39291906103c8565b505050565b8280546103d49061084c565b90600052602060002090601f0160209004810192826103f6576000855561043d565b82601f1061040f57805160ff191683800117855561043d565b8280016001018555821561043d579182015b8281111561043c578251825591602001919060010190610421565b5b50905061044a919061044e565b5090565b5b8082111561046757600081600090555060010161044f565b5090565b6000604051905090565b600080fd5b600080fd5b6000819050919050565b6104928161047f565b811461049d57600080fd5b50565b6000813590506104af81610489565b92915050565b6000602082840312156104cb576104ca610475565b5b60006104d9848285016104a0565b91505092915050565b600081519050919050565b600082825260208201905092915050565b60005b8381101561051c578082015181840152602081019050610501565b8381111561052b576000848401525b50505050565b6000601f19601f8301169050919050565b600061054d826104e2565b61055781856104ed565b93506105678185602086016104fe565b61057081610531565b840191505092915050565b6105848161047f565b82525050565b60008115159050919050565b61059f8161058a565b82525050565b600060608201905081810360008301526105bf8186610542565b90506105ce602083018561057b565b6105db6040830184610596565b949350505050565b60006020820190506105f86000830184610596565b92915050565b600060208201905081810360008301526106188184610542565b905092915050565b6106298161058a565b811461063457600080fd5b50565b60008135905061064681610620565b92915050565b6000806040838503121561066357610662610475565b5b6000610671858286016104a0565b925050602061068285828601610637565b9150509250929050565b600080fd5b600080fd5b7f4e487b7100000000000000000000000000000000000000000000000000000000600052604160045260246000fd5b6106ce82610531565b810181811067ffffffffffffffff821117156106ed576106ec610696565b5b80604052505050565b600061070061046b565b905061070c82826106c5565b919050565b600067ffffffffffffffff82111561072c5761072b610696565b5b61073582610531565b9050602081019050919050565b82818337600083830152505050565b600061076461075f84610711565b6106f6565b9050828152602081018484840111156107805761077f610691565b5b61078b848285610742565b509392505050565b600082601f8301126107a8576107a761068c565b5b81356107b8848260208601610751565b91505092915050565b600080604083850312156107d8576107d7610475565b5b60006107e6858286016104a0565b925050602083013567ffffffffffffffff8111156108075761080661047a565b5b61081385828601610793565b9150509250929050565b7f4e487b7100000000000000000000000000000000000000000000000000000000600052602260045260246000fd5b6000600282049050600182168061086457607f821691505b602082108114156108785761087761081d565b5b5091905056fea26469706673582212203d326fbb971a3a53bfe034d1d99e8a9b9663f3d045f26834fff3e423c4f5232f64736f6c634300080b0033",
  "immutableReferences": {},
  "source": "// SPDX-License-Identifier: GPL-3.0\r\n\r\npragma solidity >=0.7.0 <0.9.0;\r\n\r\ncontract healthi {\r\n    struct Patient {\r\n        string Name;\r\n        uint256 Id;\r\n        bool AccessState;\r\n    }\r\n\r\n    bool _default;\r\n\r\n    Patient[] public permissionsDB;\r\n    mapping(uint256 => string) public idToName;\r\n    mapping(uint256 => bool) public idToAccess;\r\n\r\n    function enterDetails(uint256 _id, string memory _name) public {\r\n        _default = false;\r\n        permissionsDB.push(\r\n            Patient({Name: _name, Id: _id, AccessState: _default})\r\n        );\r\n        idToName[_id] = _name;\r\n    }\r\n\r\n    function accessToggle(uint256 _id, bool _accessValue) public {\r\n        idToAccess[_id] = _accessValue;\r\n    }\r\n}\r\n",
  "sourcePath": "C:\\Users\\chekm\\Desktop\\truffle\\blockchain\\health consent\\contracts\\healthi.sol",
  "compiler": {
    "name": "solc",
    "version": "0.8.11+commit.d7f03943.Emscripten.clang"
  },
  "schemaVersion": "3.4.4",
  "updatedAt": "2022-01-30T07:33:32.653Z",
  "networkType": "ethereum",
  "devdoc": {
    "kind": "dev",
    "methods": {},
    "version": 1
  },
  "userdoc": {
    "kind": "user",
    "methods": {},
    "version": 1
  }
}